{
  "_format": "hh-sol-artifact-1",
  "contractName": "AssessmentVerifier",
  "sourceName": "contracts/AssessmentVerifier.sol",
  "abi": [
    {
      "inputs": [],
      "stateMutability": "nonpayable",
      "type": "constructor"
    },
    {
      "anonymous": false,
      "inputs": [
        {
          "indexed": false,
          "internalType": "string",
          "name": "assessmentCode",
          "type": "string"
        },
        {
          "indexed": false,
          "internalType": "bytes32",
          "name": "hash",
          "type": "bytes32"
        }
      ],
      "name": "AssessmentStored",
      "type": "event"
    },
    {
      "anonymous": false,
      "inputs": [
        {
          "indexed": true,
          "internalType": "address",
          "name": "previousOwner",
          "type": "address"
        },
        {
          "indexed": true,
          "internalType": "address",
          "name": "newOwner",
          "type": "address"
        }
      ],
      "name": "OwnershipTransferred",
      "type": "event"
    },
    {
      "inputs": [
        {
          "internalType": "string",
          "name": "assessmentCode",
          "type": "string"
        }
      ],
      "name": "getAssessmentHash",
      "outputs": [
        {
          "internalType": "bytes32",
          "name": "",
          "type": "bytes32"
        }
      ],
      "stateMutability": "view",
      "type": "function"
    },
    {
      "inputs": [],
      "name": "getOwner",
      "outputs": [
        {
          "internalType": "address",
          "name": "",
          "type": "address"
        }
      ],
      "stateMutability": "view",
      "type": "function"
    },
    {
      "inputs": [],
      "name": "owner",
      "outputs": [
        {
          "internalType": "address",
          "name": "",
          "type": "address"
        }
      ],
      "stateMutability": "view",
      "type": "function"
    },
    {
      "inputs": [
        {
          "internalType": "string",
          "name": "assessmentCode",
          "type": "string"
        },
        {
          "internalType": "bytes32",
          "name": "hash",
          "type": "bytes32"
        }
      ],
      "name": "storeAssessment",
      "outputs": [],
      "stateMutability": "nonpayable",
      "type": "function"
    },
    {
      "inputs": [
        {
          "internalType": "address",
          "name": "newOwner",
          "type": "address"
        }
      ],
      "name": "transferOwnership",
      "outputs": [],
      "stateMutability": "nonpayable",
      "type": "function"
    },
    {
      "inputs": [
        {
          "internalType": "string",
          "name": "assessmentCode",
          "type": "string"
        },
        {
          "internalType": "bytes32",
          "name": "hash",
          "type": "bytes32"
        }
      ],
      "name": "verifyAssessment",
      "outputs": [
        {
          "internalType": "bool",
          "name": "",
          "type": "bool"
        }
      ],
      "stateMutability": "view",
      "type": "function"
    }
  ],
  "bytecode": "0x6080604052348015600f57600080fd5b50600080546001600160a01b031916331790556105d3806100316000396000f3fe608060405234801561001057600080fd5b50600436106100625760003560e01c80631aec034a1461006757806325537c2f1461008f578063893d20e8146100b05780638da5cb5b146100d5578063f2fde38b146100e8578063faace998146100fd575b600080fd5b61007a61007536600461045b565b610110565b60405190151581526020015b60405180910390f35b6100a261009d3660046104a7565b610174565b604051908152602001610086565b6000546001600160a01b03165b6040516001600160a01b039091168152602001610086565b6000546100bd906001600160a01b031681565b6100fb6100f63660046104e9565b610210565b005b6100fb61010b36600461045b565b6102dd565b600060018484604051610124929190610512565b9081526040519081900360200190206001015460ff166101465750600061016d565b8160018585604051610159929190610512565b908152604051908190036020019020541490505b9392505050565b600060018383604051610188929190610512565b9081526040519081900360200190206001015460ff166101e65760405162461bcd60e51b8152602060048201526014602482015273105cdcd95cdcdb595b9d081b9bdd08199bdd5b9960621b60448201526064015b60405180910390fd5b600183836040516101f8929190610512565b90815260405190819003602001902054905092915050565b6000546001600160a01b0316331461023a5760405162461bcd60e51b81526004016101dd90610522565b6001600160a01b0381166102825760405162461bcd60e51b815260206004820152600f60248201526e496e76616c6964206164647265737360881b60448201526064016101dd565b600080546040516001600160a01b03808516939216917f8be0079c531659141344cd1fd0a4f28419497f9722a3daafe3b4186f6b6457e091a3600080546001600160a01b0319166001600160a01b0392909216919091179055565b6000546001600160a01b031633146103075760405162461bcd60e51b81526004016101dd90610522565b60018383604051610319929190610512565b9081526040519081900360200190206001015460ff161561037c5760405162461bcd60e51b815260206004820152601b60248201527f4173736573736d656e7420616c7265616479207265636f72646564000000000060448201526064016101dd565b604051806040016040528082815260200160011515815250600184846040516103a6929190610512565b908152604051602091819003820181208351815592909101516001909201805460ff1916921515929092179091557fadea5289efbc6e56d9414defb653616617c1faaff8a75c4855d7b6c083e27f349061040590859085908590610564565b60405180910390a1505050565b60008083601f84011261042457600080fd5b50813567ffffffffffffffff81111561043c57600080fd5b60208301915083602082850101111561045457600080fd5b9250929050565b60008060006040848603121561047057600080fd5b833567ffffffffffffffff81111561048757600080fd5b61049386828701610412565b909790965060209590950135949350505050565b600080602083850312156104ba57600080fd5b823567ffffffffffffffff8111156104d157600080fd5b6104dd85828601610412565b90969095509350505050565b6000602082840312156104fb57600080fd5b81356001600160a01b038116811461016d57600080fd5b8183823760009101908152919050565b60208082526022908201527f4f6e6c79206f776e65722063616e20706572666f726d2074686973206163746960408201526137b760f11b606082015260800190565b604081528260408201528284606083013760006060848301015260006060601f19601f860116830101905082602083015294935050505056fea264697066735822122004693a54c41d31eff51e01da1a7c765f18066c59487ab67751bc448d8ad50d5864736f6c634300081c0033",
  "linkReferences": {},
  "deployedLinkReferences": {}
}